:020000041000EA
:1000000000B5324B212058609868022188439860DF
:10001000D860186158612E4B002199600221596106
:100020000121F02299502B49196001219960352056
:1000300000F044F80222904214D00621196600F024
:1000400034F8196E01211966002018661A6600F04E
:100050002CF8196E196E196E052000F02FF8012189
:100060000842F9D1002199601B49196000215960AB
:100070001A491B48016001219960EB211966A021F2
:10008000196600F012F800219960164914480160C1
:100090000121996001BC002800D000471248134993
:1000A000086003C880F30888084703B5996A0420EC
:1000B0000142FBD001200142F8D103BD02B5186610
:1000C0001866FFF7F2FF186E186E02BD00000240BE
:1000D000000000180000070000035F00212200005C
:1000E000F4000018222000A00001001008ED00E03C
:1000F00000000000000000000000000074B24E7A12
:1001000000200420F7010010CB010010CD010010E9
:10011000C9010010C9010010C9010010C901001077
:10012000C9010010C9010010C9010010CF01001061
:10013000C9010010C9010010D1010010D301001045
:10014000C1010010C1010010C1010010C101001067
:10015000C1010010C1010010C1010010C101001057
:10016000C1010010C1010010C1010010C101001047
:10017000C1010010C1010010C1010010C101001037
:10018000C1010010C1010010C1010010C101001027
:10019000C1010010C1010010C1010010C101001017
:1001A000C1010010C1010010C1010010C101001007
:1001B000C1010010C1010010C1010010C1010010F7
:1001C000EFF30580103800BE00BE00BE00BE00BECA
:1001D00000BE00BEF2EB8871743205109832051033
:1001E0003802001090A31AE71E481F49086006C88D
:1001F00081F3088810471D480068002801D019487D
:10020000F3E70DA40ECC002902D000F012F8F9E7B4
:100210001749184A002000E001C19142FCD116495B
:100220008847164988471649884700BEFDE701C937
:1002300001C29A42FBD3704798320510E0000020BB
:100240004817002000490510000004200000042089
:1002500000490510001004200010042000000000D8
:10026000704700000000000008ED00E0000000D032
:1002700048170020F0D10020895D00109103001084
:10028000815D0010F8B5C04606480749091A8B1071
:10029000C90FC91810B5491003D0044B002B00D06A
:1002A000984710BD481700204817002000000000A4
:1002B000054B10B5002B03D00449054800E000BFF2
:1002C000FFF7E2FF10BDC046000000000CD0002088
:1002D000E489011010B50421102001F0A1FE0022D4
:1002E000064B1A60FA22064BD2005A60054A1A6180
:1002F0001A6801239343044A136010BD68D100209B
:1003000000000540204E00000010054070B504219B
:10031000152001F085FE40230125134C134AE362AA
:10032000134B0421A363134B0A201B681B0C1B04F3
:1003300013602A00104B1B689A43104B1A6001F09F
:100340006FFE8023DB00A366FA23DB0063670C4BA0
:100350000C4A1B681B041B0C13600B4B1B689D4352
:100360000A4B1D6070BDC0460000054034100540BA
:1003700010270000340005402800054028100540E3
:100380007000054070100540640005406410054091
:10039000F0B5DE4657464E464546E0B59FB005F0FF
:1003A00031FEFA20C00002F0EFFEC74805F078FEEB
:1003B0000B2001F0D5FED024802324061B016362AC
:1003C0000D2001F0CDFE80239B01636212F010FE30
:1003D000002800D052E2FA2401F010F901F0F4F9FB
:1003E00014A800F023FB01F087F818A800F068FAC1
:1003F000FFF770FFFFF78AFFFA20B44E64003368FE
:10040000B34D63409BB22B60800002F0BDFEFA202A
:100410003268B04B800053409BB22B6002F0B4FEB8
:10042000336800275C400023A4B22C600C9309932E
:1004300001339846A84B00260793A84BA84D9A462F
:100440002C00D346A74B009601979946A64B1296CF
:1004500013970A93A54B06950B93A54B1093A54BA9
:100460001193A54B0393A54B0D9312F0B5FD02F02C
:10047000A1FF009A019B801A9941002937DC33D0F3
:1004800002F098FF801BB941002900DCE7E002F090
:1004900091FF434606000F00002B17D0069D18A8B9
:1004A000290000F04DFAC82303999B009D4202D811
:1004B0000D99952D16D918A800F0A4FA42460123EB
:1004C0005A409046052002F05FFECEE7210018A8B2
:1004D00000F036FAC82303999B009C42EBD80D9993
:1004E000952CE8D81199E6E7854B9842C8D902F0D7
:1004F00061FF009014A8019100F0E6FA0024824602
:100500002500069001F00CF8952352469342654170
:10051000079B00211B780890EDB2049303F092FE34
:10052000002800D0F8E07749089803F05CFE03F05B
:10053000DFFE5B4652461D7084B20023952A02D826
:100540005B465B6864335A46002153609523002262
:10055000A3424A4113004A4613704B46952C00D9DA
:1005600067E1536864335360049B002B00D14AE178
:100570005346952B00D8DFE00A9B1B78002B00D058
:10058000DAE00B9B1A68002307990B700A990B702D
:10059000002A00DDD8E05346653B9BB2942B00D87F
:1005A0007FE02300653B942B00D915E1099B002BCC
:1005B00000D100E1012309935346962B57D9962C7D
:1005C00055D9A222973B9BB29200934272D9230045
:1005D000973B9BB293424AD8414B221C9C4200D984
:1005E0001A1C95B202F0E6FE0E9028000F9103F05F
:1005F0002FFEFF21890503F0E2FD03F04BFE2828C2
:1006000000DA282043011B1A9B001B18DB009C46C4
:100610000E980F99DD17129A139B801A99418D42FB
:1006200000DD2DE702D1844500D929E701230C9A8A
:100630005A400C92344B00D114E11A68334B5340AA
:100640001B0C334A1B04136002F0B4FE129013918A
:1006500002F0B0FE801BB941002900DD17E7002938
:1006600000D02FE72B4B984200D910E72AE7264B02
:10067000274A1B681B0C1B04136000230C93FFE626
:100680000A9B1B78002B00D0D1E00B9B1B68002B32
:1006900000DDFFE05346653B9BB2114C942B00D923
:1006A0009AE0099B002B00D185E05346962BDED9BA
:1006B000962CDCD92300A222973B9BB25546920090
:1006C00093428FD8534688E7008A01100C000540FA
:1006D0000C100540AA050000E2D10020B0D1002096
:1006E0000F270000B8D10020E3D100207C36002085
:1006F000F8180020F8890110F0890110E88901102C
:100700009F8601000000204134000540000088134E
:10071000341005401FA107005A4615705246952A0D
:1007200078D85A465368643353604A46049B147021
:100730005460002BA4D0584C06230B9A136000235E
:10074000079A13700A9A1370109B1A685B680492D8
:10075000059302F02FFE049A059B801A9941002907
:1007600005DC00D017E74D4B984200D813E702F0A4
:1007700021FE109B0B9D186059602B685A1EDB07E9
:1007800061D5FA2346499B00086843401B0445484D
:100790001B0C03602A60002A00D0FCE60B68424A6A
:1007A0001B041B0C0360414B1B681B0C1B041360D8
:1007B00000230C93EFE63E4B1A683E4B53401B045C
:1007C0003D4A1B0C1360D02380221B0692015A6104
:1007D000802212019A61EDE6099B002B10D0344B68
:1007E0001A68FA235B0053401B04334A1B0C136046
:1007F000D02380221B0612015A61802292019A6145
:1008000000230993D8E60A9B1B78002B94D10B9BFD
:100810001A68BDE65B465C604B461C705C60049BDE
:10082000002B00D12CE70B9B1B4C1A68ABE61A4C33
:10083000A7E600225A60049B002B19D05346952B43
:1008400000D879E79DE6164B16491B681B041B0C64
:100850000B60164B14491B681B0C1B040B600B9B95
:100860001A6098E61B68104A1B0C1B041360EBE629
:100870000A9B1B78002B00D083E6C8E70F4805F0E1
:100880000FFC012040421FB0F0BCBB46B246A94657
:10089000A046F0BD004C57E70F2700003F0D0300B6
:1008A00070000540701005403410054034000540CC
:1008B0000C000540AA0500000C100540248A011018
:1008C00030B51B4D83B004001A49280016F04AFFCA
:1008D00003210E2001F0A4FB03210F2001F0A0FB57
:1008E000002201210E2001F0B5FB002201210F2082
:1008F00001F0B0FB3C2340228021200000930195B1
:10090000002300F07BFA200000F090F900F0E0F8FE
:10091000E06819220A21084B013000F01BF9200081
:1009200000F086FA054805F0BBFB03B030BDC046B9
:10093000D8110020801A0600308A01103C8A01106C
:10094000F0B502690600C0680C0089B00021813A48
:10095000813003F045FD274B9C423ED0FA235B01DA
:100960009C422CD822002449684605F099F9F06889
:100970006B4614220A21013000F0ECF8C8235B001A
:100980009C421AD21C1B0321200003F053F80700DD
:10099000782800DD782705250437022C0DDD2D246D
:1009A000F0682200012329000130013400F0BCF876
:1009B000342CF5D10135BD42F1DD09B0F0BD6946F9
:1009C0006B460E4A31CA31C111CA11C1F0681422F6
:1009D0000A21013000F0BEF8EFE76946084A6B468D
:1009E00031CA31C1106808609088888092798A7114
:1009F000ECE7C046FFFF0000848A0110708A0110F6
:100A00005C8A011070B504000D00C06880220021CE
:100A1000013003F0E5FCE0682B00002205210130E5
:100A200000F098F8200000F003FA70BD70B5224D78
:100A300006002249280016F095FE0321002001F04F
:100A4000EFFA0321012001F0EBFA0022012100203E
:100A500001F000FB01210022012001F0FBFA0B2034
:100A600001F07EFB0D2001F07BFBD024802280234F
:100A7000240612019B0162620A2063626261A36123
:100A800001F06EFB8023FA20DB004000636202F07D
:100A90007BFB2900300000F011FA002803D1084840
:100AA00005F0FEFAFEE73000002100F031FC0548B9
:100AB00005F0F6FA70BDC046E011002050C30000FA
:100AC000988A0110BC8A011010B500F0A5FC10BD79
:100AD000F0B54746CE4680B58BB003AC2200104B34
:100AE000802723CB23C223CB23C21B88002613805D
:100AF00026236B4499460B4B02AD984623782F7002
:100B00006B702A0002233C2140460096013416F007
:100B100051FE4C45F2D10BB0C0BCB946B046F0BD59
:100B2000D8B30110D811002030B50725D4172C40B8
:100B3000A41815400122E410E40161184418AA40E9
:100B4000415C002B03D01143C9B2217030BD9143E9
:100B5000FBE7C046F0B5DE4657464E464546E0B593
:100B600085B078294DDC382A4BDC1C78002C48D025
:100B70000725D6173540AA18D210D2010292294A69
:100B80000392294A93462AE0303C092C40D8FF249E
:100B90002240153A5C46D200A45C5A44A2465478DE
:100BA0001779A14694785679A046D4789579A446C9
:100BB000D27901925446029A8A1884544C4682187B
:100BC0005470444694706446D470019C17715671F9
:100BD0009571D4711C78083109B2002C11D0013301
:100BE0007829F7DC0326039D22002D5D3540022D78
:100BF00001D1203AD4B22500413D192DC4D8403A44
:100C0000C8E705B0F0BCBB46B246A946A046F0BD59
:100C100000220025002600279446904691469246E1
:100C20000192C7E771310510B0B2011070B506002E
:100C30000025AE2382B014360400C178437532001B
:100C40004068AC3B009516F0B5FD2023E178637554
:100C5000320060681E3B009516F0ACFD0123E17880
:100C60006375320060680133009516F0A3FD4023E0
:100C7000E1786375320060683E3B009516F09AFD9E
:100C8000A123E1786375320060689F3B009516F000
:100C900091FDA823E178637532006068A63B00955A
:100CA00016F088FD3F23E1786375320060683D3BB4
:100CB000009516F07FFDC823E17863753200606807
:100CC000C63B009516F076FDD323E17863753200BC
:100CD0006068D13B009516F06DFDE17832006068E8
:100CE00065750223009516F065FDDA23E1786375DA
:100CF00032006068D83B009516F05CFD1223E17865
:100D0000637532006068103B009516F053FDD523E3
:100D1000E178637532006068D33B009516F04AFDB8
:100D20008023E1786375320060687E3B009516F0A1
:100D300041FDD923E178637532006068D73B0095A7
:100D400016F038FDF123E178637532006068EF3BFF
:100D5000009516F02FFDDB23E178637532006068A3
:100D6000D93B009516F026FD3023E17863753200FB
:100D700060682E3B009516F01DFD8123E1786375B8
:100D8000320060687F3B009516F014FDFF23E17888
:100D9000637532006068FD3B009516F00BFDA423DF
:100DA000E178637532006068A23B009516F002FDA1
:100DB000A623E178637532006068A43B009516F0C5
:100DC000F9FC8D23E1786375320060688B3B0095F8
:100DD00016F0F0FC1423E178637532006068123B72
:100DE000009516F0E7FCAF23E17863756068320088
:100DF0000095AD3B16F0DEFC02B070BD70B56B46E1
:100E00000400D00805041B7C484312020A432A430D
:100E10001B061A43059B013063600121226020619B
:100E200003F0BEFA402303704033E060237570BDC9
:100E300070B5060000252123040082B01436C17865
:100E40004375320040681F3B009516F0B3FCE17813
:100E50003200606865750223009516F0ABFC2378BC
:100E6000E178013B6375320060680223009516F05B
:100E7000A1FC2223E178637532006068203B009575
:100E800016F098FCE17832006068657502230095E1
:100E900016F090FCA378E178013B6375320060683E
:100EA0000223009516F086FC2369E268E178606809
:100EB000009516F07FFC02B070BDC046F0B5DE466E
:100EC00057464E46454604002923E0B585B02371B8
:100ED000FA239B00E3809846C023002603AD5B0005
:100EE0009946984F2B807F3B216008002A002921DA
:100EF000FF3B009616F05EFC2F80217902232A002A
:100F00002068009616F056FC2E80217902232A00D4
:100F10002068009616F04EFC91236A46D3720B228D
:100F2000903B217920686A4400939A4616F042FC6F
:100F3000217901232A002068009616F045FC2B78C1
:100F40002A00237280235B002B8021792068FE3BDE
:100F5000009616F02FFCFF232B8021792A002068B1
:100F6000FD3B009616F026FC80232B8021792A0079
:100F700020687E3B009616F01DFC60239B466B4666
:100F80005A46DA725346553A217920686A440093EA
:100F900016F010FC217901232A002068009616F033
:100FA00013FC5A462B782A70122213436B70217956
:100FB00002232A002068009616F0FCFB44232B80B5
:100FC000243BAB7021792A0020681D3B009616F067
:100FD000F1FBFF235B422B80023321792A0020683A
:100FE000FF33009616F0E6FB4B462B807F3B2179C2
:100FF0002A002068FF3B009616F0DCFB2F80217949
:1010000002232A002068009616F0D4FB2E80217956
:1010100002232A002068009616F0CCFB4A4B2A00D7
:101020002B80217902232068009616F0C3FB6B46C3
:101030007D3FFF3F1F7253462179206802AA00932B
:1010400016F0B8FB217901232A002068009616F0DB
:10105000BBFB04222B782F7013436B702179022382
:101060002A002068009616F0A5FB384B2A002B803A
:10107000217902232068009616F09CFB8223FF331F
:101080002B80803B21792A002068FF3B009616F0D8
:1010900091FB4B462B807F3B21792A002068FF3B48
:1010A000009616F087FB2A4B2A002B802179022319
:1010B0002068009616F07EFB2F80217902232A00FB
:1010C0002068009616F076FB02F074F9002900D132
:1010D0000FE1FA220023920002F012FD8046012661
:1010E000832399466B464A4600275A727A3A2179F9
:1010F000012320686A44009616F05CFB01232179E5
:1011000020682A00009716F05FFB2B78002B21D176
:1011100002F050F900290BD0FA220023920002F0CD
:10112000EFFC4346E788C01A8742D9D20020D9E0B5
:10113000FA21890002F0A6FC4346C01AE3889842CF
:10114000CED9F3E7FF010000FF060000FF07000013
:10115000946B00008423FF332B80823B21792A008B
:101160002068FF3B009716F025FB92236A46D37256
:101170000B2221792068913B00966A4416F01AFBF5
:10118000217901232A002068009716F01DFB812396
:101190002B8021792A0020687F3B009716F00AFBFC
:1011A000564B2A002B80217902232068009716F0E5
:1011B00001FB4A466B46DA72783A217901232068AE
:1011C0006A44009616F0F6FA217901232A00206875
:1011D000009716F0F9FA4A462B782A707F3A934323
:1011E0006B702179904602232A002068009716F040
:1011F000E1FA434B2A002B80FE3B21792068FF3B1C
:10120000009716F0D7FA80235B002B8021792A0003
:101210002068FE3B009716F0CDFAFF232B80217942
:101220002A002068FD3B009716F0C4FA80232B802B
:1012300021792A0020687E3B009716F0BBFA314BDB
:101240002A002B80217902232068009716F0B2FA39
:10125000842399466B464A469A727A3A2179012349
:1012600020686A44009616F0A5FA217901232A0025
:101270002068009716F0A8FA4A460C262B782A70A8
:10128000743A93436B70217902232A002068FF3659
:10129000009716F08FFA2E80217902232A00206809
:1012A000009716F087FA184B2A00E360174B206866
:1012B0002B8021790223009716F07CFA43462B807D
:1012C0001A33AB7021792A0020681B3B009716F077
:1012D00071FA2E802179206802232A00009716F0E7
:1012E00069FA012005B0F0BCBB46B246A946A0464B
:1012F000F0BD414602F0C6FB8046F0E6FF06000066
:10130000FF0100000A040000E880000001E8FFFF80
:10131000F0B5CE464746C0230026040080B585B010
:1013200003AD5B002B807F3B2A00FF3B0F00017960
:101330000068009616F03EFA364B2A002B80FE3BE2
:1013400021792068FF3B009616F034FA2E8021792F
:1013500002232A002068009616F02CFA9122237AA4
:101360002A706B70217902232A002068009616F0FB
:1013700021FA80235B002B8021792A002068FE3B24
:10138000009616F017FAFF232B8021792A00206897
:10139000FD3B009616F00EFA80232B802179206801
:1013A0007E3B2A00009616F005FA236898462379BA
:1013B0009946002F21D07800C0190D21800002F03D
:1013C00061FB04232B7083B21B0A6B70A87003238C
:1013D0002A0049464046009616F0ECF98023DB00CF
:1013E0002B802179206802232A00009616F0E2F96A
:1013F00005B0C0BCB946B046F0BD80239B002B8031
:10140000FF3B2A00494640460097FF3B16F0D2F9C1
:10141000EEE7C046FF010000F0B5C64600B584B057
:10142000040001F0C7FF00295DD0FA2200239200DA
:1014300002F066FB0600012703AD13236A46937290
:101440000A2221792068123B6A44009716F0B2F90B
:10145000002321792068984600932A00013316F072
:10146000B3F92B785B0718D101F0A4FF00290BD04A
:10147000FA22E38892009846002302F041FB801B89
:101480008045DAD21B4E29E0FA21890002F0FAFAEF
:10149000E388801B9842D0D9F4E71E236A46D372B2
:1014A0000B22217920681D3B6A44009716F082F9CF
:1014B000434621792A0020680093023316F084F90C
:1014C0000C23FF332E882B8043462179206876BA7F
:1014D00000932A000233B6B216F06CF9300004B063
:1014E00080BCB846F0BDFA21890002F0CBFA0600B4
:1014F000A1E7C046FFFF000010B5122000F030FE4B
:10150000D02480232406DB0263621320A36100F051
:1015100027FE80231B033220A36201F035FE10BD9D
:10152000F0B5D02680273606FF0283B002200021C6
:10153000B76101F0B3FD0A200021776101F0AEFD33
:10154000B76101F037FF0023274A8018594100296D
:1015500002DA012025494042D02480270E00244A87
:1015600024063F0363683B420AD1536A9E42F9D87E
:10157000956A854201D29E42F4D01E4803B0F0BD68
:1015800001F018FF0090019101F014FF0023164AAA
:1015900080185941002923DBD02480270E00144AEB
:1015A00024063F0363683B420AD0536A9E42F9D83F
:1015B000956A8542E1D29E42DFD163683B42F4D115
:1015C00001F0F8FE009B019CC01AA14102F098FEB8
:1015D000094902F008FEFC21890502F004FECDE76E
:1015E000012002494042D7E730750000FFFFFF7F2E
:1015F00000400540000080BF96430B3D10B5144CE1
:1016000084B020001349144A11F0A2FC134B03AA22
:101610000293134B02A91348039300F01DFC02A987
:10162000114800F0D9FC114804F03AFD210010489F
:1016300004F0BAFD0123A822C02100930D48033312
:1016400004F0B2FD0C4804F02BFD04B010BDC04600
:10165000F08A0110E48A011004004000C0A80401CF
:10166000FFFFFF005C2D0020E82D0020088B0110FB
:10167000208B01102C8B0110408B011010B508003D
:10168000024909F0EBFC002010BDC0469116001085
:10169000F0B5CE46474680B50E001400C5B0002A0E
:1016A00019D03000118909F0C3F96568384928005C
:1016B00016F024FE002817D0364B012230001A7095
:1016C000354901232E320CF0F1F830000CF074FF94
:1016D000200008F0FFFC30000AF0DEF8002045B0E2
:1016E000C0BCB946B046F0BD28002C4916F006FE35
:1016F000002801D02A4BE0E728002A4916F0FEFD19
:10170000002835D0284B1A78002A2BD0274A90463B
:10171000FA215868890002F0B5F9254B07001A78BC
:10172000002A22D0214A9146FA215868890002F005
:10173000A9F94B4680211F4D02902A0001934900D0
:101740004346009704A804F0C1FA04A816F0C2FEAC
:10175000012382B204A930000CF0A8F830000CF08C
:101760002BFFB5E7144A9046D2E7134A9146DBE7D0
:101770002800124916F0C2FD0028A9D0012330002C
:101780000F49104A0CF092F830000CF015FF9FE75B
:10179000688B0110E2D10020788B0110A88B01101A
:1017A000E3D10020B88B0110B0D10020588B01107C
:1017B000B8D10020C48B0110608B0110488C01103F
:1017C000508C0110070A000010B52E2009F09CFE75
:1017D000084C50220849206009F038F8FF212068A1
:1017E00009F0AEF80549206009F046FC044804F011
:1017F00057FC10BD5CD00020B0BB01107D1600105E
:1018000058960110F0B5CE46474680B5684C13890E
:1018100006001500A544F22B09D8280008F05AFC50
:1018200093239B009D44C0BCB946B046F0BD8922BD
:1018300000232800920009A908F090FDF228ECD9B5
:1018400024216A46022352181370310004220DA885
:1018500002F0CCFD9A20002345AA40000AE0922124
:1018600089005C186C44343CFF3C247802341B191A
:101870008342D2DAD45CD118FF2CCED0352CEED1F5
:101880008B78012B00D19BE0032BC6D19A24002337
:1018900064000AE092218900591869443439FF39FB
:1018A000097802315B18A342B7DAD15CD018FF295E
:1018B000B3D03229EED1827833789A42ADD1C27852
:1018C00073789A42A9D10279B3789A42A5D147791F
:1018D0003C00103CE4B2072C9FD80134E30098464A
:1018E000B0440622404610A916F0E2FA00280CD0B7
:1018F000062240462F4916F0DBFA002800D08CE77C
:101900000622404610A902F071FD01F053FD0029A6
:1019100000D175E2FA220023920002F0F1F8264A83
:10192000E3008218F318120CDA806B463722242168
:101930009B18684636221F70F0234018FF32C252AF
:101940006846313A40180233FF3AC2546B463D3282
:1019500041209B186A4640241218684600191B78DB
:10196000017812786C4606973627E4192478013FEF
:1019700005946C46E4192478013F04946C46E419FC
:1019800024789C466B4603942124103FDB191C5D90
:101990006B4602942024DB191C5D6B4601944324A2
:1019A0001B191C7805486346009404F0FDFB9CE07D
:1019B000B4FDFFFFF4B30110005C26057C96011016
:1019C00008239846B0440622404610A916F070FA43
:1019D000041E78D0D84F06223900404616F068FA27
:1019E000431E9841F389D54A1B041A439146C4000B
:1019F00001F0E0FC002900D0E2E0FA21890002F0C9
:101A000041F84B46181A00D509E210239846B04415
:101A10000622404610A916F04BFA002800D10CE22D
:101A2000082C00D1DFE0002418239846B044062299
:101A3000404610A916F03CFA002800D1FFE1082C1E
:101A400000D1F2E020239846B0440622404610A977
:101A500016F02EFA002800D1F3E1082C00D106E19F
:101A600028239846B0440622404610A916F020FAD2
:101A7000002800D1E7E1082C00D11AE13023984674
:101A8000B0440622404610A916F012FA002800D1F0
:101A9000DBE1082C00D12EE138239846B044062221
:101AA000404610A916F004FA002800D1CFE1082C16
:101AB00000D149E13000062210A9403016F0F8F9B3
:101AC000002800D187E037226B4624219B18684606
:101AD000362210341C70F0234018FF32C252684680
:101AE000343A0233FF3A4118CA5424276946F32393
:101AF00036221A200424C919CA54FF300133CC54A9
:101B000004223100684402F071FC6946F923012285
:101B10002020C919CA54FF300133CC540422311D8E
:101B2000684402F063FC6946FF2303222620C9199A
:101B3000CA54FF300133CC5404223100684402F00F
:101B400055FC0623694606222C20C919FF33CA54C6
:101B5000FF300133CC5404223100684402F046FCCB
:101B60000C2368463322C019FF33C254744B6846B5
:101B70004C938823C1195B00B33ACA52A022892131
:101B8000704B3620920049005F6808F04FF9041E40
:101B900000D142E689224068520009A902F026FCE1
:101BA00001235B42B06C0893002F16D021000097F0
:101BB000453308AA0DF0F6FC200008F08BFA2CE65D
:101BC000FA220023920001F09BFF1AE7062200216F
:101BD000404602F005FC072475E74423210008AACB
:101BE0000DF004FDE8E706223900404616F060F9E2
:101BF000002800D1073CF38A504A1B041A4391463F
:101C000001F0D8FB002900D1E1E0FA220023920084
:101C100001F076FF4B46181A00D405E70622002192
:101C2000404602F0DDFB0124FEE606223900404674
:101C300016F03EF9002800D1063CF38B3F4A1B0406
:101C40001A43914601F0B6FB002900D1C4E0FA2204
:101C50000023920001F054FF4B46181A00D4F1E61D
:101C600006220021404602F0BBFB0224EAE60622DF
:101C70003900404616F01CF9002800D1053CF38CD1
:101C80002E4A1B041A43914601F094FB002900D10F
:101C9000A7E0FA220023920001F032FF4B46181A07
:101CA00000D4DDE606220021404602F099FB032421
:101CB000D6E606223900404616F0FAF8002800D190
:101CC000043CF38D1D4A1B041A43914601F072FB3C
:101CD000002900D18AE0FA220023920001F010FFCF
:101CE0004B46181A00D4C9E606220021404602F0ED
:101CF00077FB0424C2E606223900404616F0D8F8E5
:101D0000002800D1033CF38E0C4A1B041A43914671
:101D100001F050FB00296ED0FA220023920001F05E
:101D2000EFFE4B46181A00D4B6E6062200214046C4
:101D300002F056FB0524AFE6F4B30110FFFF0000EC
:101D4000040001515C36002006223900404616F09E
:101D5000AFF8002800D1023CF38F3E4A1B041A431F
:101D6000914601F027FB00294FD0FA220023920070
:101D700001F0C6FE4B46181A58D440239846B0448A
:101D80000622404610A916F093F8002800D122E759
:101D9000082C5CD106223900404616F089F800284C
:101DA00000D1013C4623F35A2A4F1B041F4301F084
:101DB00001FB00292ED0FA220023920001F0A0FEA0
:101DC0003F1A00D502E7082C00D126E503E7FA21E7
:101DD000890001F057FE1DE7FA21890001F052FE4B
:101DE0003AE7FA21890001F04DFE57E7FA21890010
:101DF00001F048FE74E7FA21890001F043FE90E704
:101E0000FA21890001F03EFE89E5FA21890001F0FE
:101E100039FEAFE7FA21890001F034FED0E706224F
:101E20000021404602F0DCFA0024EEE50622002103
:101E3000404602F0D5FA06243CE6012443E602249B
:101E400041E603243FE604243DE605243BE6062460
:101E500039E6C046FFFF00000B6810B50360136849
:101E60000400436040220021083002F0B9FA0DF06E
:101E70004BFCA064002808D0220004490DF020FC8F
:101E800043220349A06C0DF06FFA10BD0518001035
:101E9000B0BB0110F0B54F464646D6461500962217
:101EA000C0B5CCB0984654AB1B8801AE070099462C
:101EB000310000232800520008F050FA04000B28DB
:101EC00008D8280008F006F94CB0E0BCBA46B14684
:101ED000A846F0BD708807F053F98246B08807F035
:101EE0004FF953465246DB0BD20A13439BB2002BE9
:101EF000E7D10028E5D0331904AA1400934206D88C
:101F00000CE03F29DDD801316418A34203D92178C0
:101F10000029F6D10134A21AFF2AD2DCC023237192
:101F2000B43B637100239A46A3710133E37163727A
:101F300053463C3363735346524620000433E373E5
:101F4000391D2272A272E2722273A27310301A003B
:101F500002F04CFA1C4807F013F97080012007F0DA
:101F60000FF9B080012007F00BF95346039380234B
:101F70001434F080A41B5B029C4200D3134CA022BB
:101F80003620A1B2920007F051FF8246002816D0F9
:101F900022003100406802F029FA4B464246514681
:101FA00038680DF023FB0400504608F093F8002C2D
:101FB00000D186E72100064804F0F6F881E70548DD
:101FC00004F06EF87DE7C04680840000FFFF00004B
:101FD000F4960110C896011030B583B004000D00CE
:101FE0000DF092FB206000280ED022000A490DF06F
:101FF00067FB00233522206801A901930DF0B4F995
:10200000021E03D12B68636003B030BD3521034845
:1020100004F0CAF8F8E7C046951E001014970110A6
:10202000094A83009A1810B514684022544080323F
:102030002240064CC000A44663441A60044B9C46F0
:102040006044416010BDC04604C0014004D001405E
:1020500000400140074B8000C3181B68C900920074
:102060000A435A400C231340034A944660440360D9
:102070007047C04604C0014004D0014080000029E0
:1020800005D0064B9C460223604403607047044B16
:102090009C46022360440360F8E7C04604E0014028
:1020A00004F00140D0231B061B6830B505005842E0
:1020B00043412F205B4283430E48EC0884460720AF
:1020C00028408000814020000B4D3C30634480005C
:1020D000A40041511B19002A05D080229201944688
:1020E0006344196030BDC022920194466344196074
:1020F000F8E7C0463041014000400140D023F0B530
:10210000C6461B0698461B680C4F9B001600FA58E3
:1021100004000D0000B5104209D1290014430D2020
:102120003200FC5000F092F980BCB846F0BD01F0DE
:1021300051FB43461B689B00FA58EEE73CD0002059
:1021400010B504000D2000F07BFAD0231B061B689D
:1021500002499B005A58A2435A5010BD3CD000205F
:102160000123D0228340120693629361094A8300BF
:102170009A1811684022514080320A400649C00036
:102180008C4663441A60054B9C46052360444360BB
:102190007047C04604C0014004D0014000400140E7
:1021A0008023DB051868000F7047C0460FB400B5E8
:1021B000084883B003F074FF049B002B07D005A9E7
:1021C0001800019103F0A8FD034803F069FF012006
:1021D00003F0BAFD38970110548B0110EFF3108013
:1021E00072B6034A1368002BFCD0BFF35F8F7047B1
:1021F0002C0100D0BFF35F8F0022024B1A6080F3E6
:10220000108870472C0100D070B5EFF3108C72B6B7
:102210000D4D2B68002BFCD0BFF35F8F0724CB083C
:10222000C618C05C01230C40A3401C0004400342BC
:1022300007D118433070BFF35F8F2C608CF3108888
:1022400070BD1000FFF7B2FF2C0100D0F8B5474673
:10225000CE46884680B5EFF3108C72B61C4D2C68C4
:10226000002CFCD0BFF35F8F9A4222D807210126B1
:10227000894602E00132934218D34D46370015409B
:10228000AF40D4080119045D2742F3D110003C434C
:102290000C70BFF35F8F00220D4B1A608CF3108817
:1022A00000280EDBC0BCB946B046F8BD0120404254
:1022B000EFE7BFF35F8F00232B608CF310880120C2
:1022C00040424346002BEDD00898FFF76FFFC04611
:1022D0002C0100D030B5EFF3108C72B60A4C236895
:1022E000002BFCD0BFF35F8F072301220B409A40E5
:1022F000CD08435D93434355BFF35F8F00232360B5
:102300008CF3108830BDC0462C0100D0044A1078F0
:10231000431CDBB2172B00D9102313707047C04643
:10232000B010002010B5064B064C82B0010000939F
:1023300018221F232000FFF789FF02B010BDC046FE
:1023400048970110282300200021044B044ABFF3C2
:102350005F8F02C39342FAD17047C046000100D09C
:10236000800100D0054B064A1360064A1360536093
:102370009360D36013615361936170478080808064
:1023800000E400E004E400E01F2318401E3B83400B
:10239000002905D0C021044A4900535013607047FA
:1023A000802201498B50FAE700E100E001228240DF
:1023B000034B1B6813405A1E9341D8B27047C04666
:1023C00000E100E001238340014A13607047C046EA
:1023D00000E200E0064B10309B688000C358054ABD
:1023E00000209B1A2F229A424041C0B27047C0463B
:1023F00000ED00E0B410002070B50D00EFF3108682
:1024000072B60F4A1368002BFCD0BFF35F8F0D4BE1
:1024100010309B6884001B590B4A934203D09D42A5
:1024200001D001F0D7F9074B9B681D51BFF35F8FB7
:10243000BFF35F8F0022024B1A6086F3108870BDD5
:10244000240100D000ED00E0C1010010F0B55746B6
:102450004E46DE464546E0B585B0060000911700C1
:10246000EFF3108B72B66A4A1368002BFCD0BFF3EF
:102470005F8F0025674B5D579A46002D00DAA9E073
:102480006B00654C01935B199B009846A146C144C3
:102490004B4652469B7910361370604BB6009B68D2
:1024A00099590B1B2F2B33D95D4B994200D0ACE0CF
:1024B000019B42469C465B4B6544AD0063535A4BBF
:1024C0000232A218043B9B1A1B05584A5B0D651982
:1024D00013436B80564B0121AB80FF23AB71009BF4
:1024E000EF71AB604B460B4319004C4B9B68995105
:1024F000BFF35F8FBFF35F8F0022454B1A608BF3F2
:10250000108805B0F0BCBB46B246A946A046F0BD57
:1025100001200A008243D3798C46BB4231D845461C
:10252000130044491B1B5B415943090D3D4B635349
:102530003D4B02356519043B5B1B1B053B4D5B0D99
:102540002B43AA464D466B800425AC465546E044D5
:10255000131F44441B1B1B055B0D1D434B46997108
:1025600000999D8099604946DF71334B01431360A8
:10257000BBE75800C01880002018C179B9422FD994
:1025800002000623D356002BF3DA02932B4B61464D
:102590000393131D9A4604235B429C46E144504634
:1025A0004B461B1A1B055B0D9C46204B95719846AC
:1025B0006346404603439380019B5A199200039B54
:1025C000A418A380029B1C4AA371009B2260E771A0
:1025D000A3608AE701F0FEF8002553465D574FE7F8
:1025E000908802934005131D9A46031561469C4648
:1025F0004046D444634604302018181AE0230005EE
:10260000400D1B0218430390C5E701F0E3F84FE7C4
:10261000240100D0E0D10020B410002000ED00E043
:10262000C101001000A1FFFFE410002000E0FFFF47
:1026300001BDFFFFAAAA00000148804701BD0000BC
:10264000F0B5DE4657464E464546E0B50C0083B031
:10265000EFF3108872B6634A1368002BFCD0BFF307
:102660005F8F614B61499A68030010339F00D55911
:1026700001938D4243D0A54254D05D4EAA1B2F2A10
:102680003DD85C4B9B461B68994601231A009C462B
:1026900082404B4613401F229946634602409340B6
:1026A0009A4680225B4650469850BFF35F8FEFF307
:1026B00005839B46002B37D0019B5B4501D001F081
:1026C00089F801232A009A439068844208D176E071
:1026D0004B005B189B00F3189868844236D01A00B0
:1026E000062151560029F3DA844254D04B46002B80
:1026F00027D0C02251463F4B5200995019603A4BA7
:102700009B68DD51BFF35F8FBFF35F8F0022354BB6
:102710001A6088F3108803B0F0BCBB46B246A946E5
:10272000A046F0BD0D00EAE72A0063469A43906890
:102730008442D5D106201056130000280ADA0D0075
:1027400031E0802351462B4AD150D8E70620185655
:10275000002821DB42001118890074188B46A168FB
:102760009960E179D971062161569971002924DBBC
:10277000A488F11A640524155C44091909051E4C46
:10278000490D2143998013181C4A9B001178F318B6
:1027900099711070AAE713005946002914D1FF312E
:1027A00091711749918015490A789A71154A9B1BB6
:1027B0005B415A43120D0A7098E71149E2E706207F
:1027C000105613000028C5DA0F4A1049D21A083AE9
:1027D0005002400D014399800D4952080A43DA80A6
:1027E00084E7C046240100D000ED00E0C1010010E4
:1027F000B410002000E100E000E0FFFFE0D1002085
:1028000001BDFFFFAAAA0000EE10002000F0FFFFAC
:1028100000F8FFFF70B501240443EFF30581EFF3E7
:10282000108C72B6214A1368002BFCD0BFF35F8F67
:102830001F4B05001F4AED1A6D416A43120D1E4DD4
:102840008900AE6852B27658A6421CD0062159566D
:1028500091421CD012215956914222D01E21595624
:10286000914220D02A2159560324914210D0134B73
:1028700019781A708171BFF35F8F00220B4B1A60B9
:102880008CF3108870BDAB680D4C5C50EFE70024F2
:102890006100091989005B18FF2199710949998024
:1028A000E5E70124F4E70224F2E7C046240100D062
:1028B000B4100020AAAA000000ED00E0E0D1002042
:1028C000C101001001BDFFFF10B5084B084C82B0DC
:1028D00001000093002205232000FFF7B7FC002829
:1028E00001DB1F23181A02B010BDC0466497011007
:1028F000EDD1002070B504000E001500FFF706FDB5
:102900000100200000F006F8A680E580BFF35F8F8D
:1029100070BDC046024B9C4661448900016070470F
:102920004000003470B5114C114DAC420FD2FF265F
:102930002368002B0CD0FFF7E9FC01002000FFF713
:10294000E9FFA680BFF35F8F0834AC42F0D370BDBF
:10295000FFF7DCFC01002000FFF7DCFF2671BFF36E
:102960005F8F0834AC42E3D3F1E7C0464017002044
:102970004817002010B50400FFF7C8FC0100200034
:10298000FFF7C8FFFF232371BFF35F8F10BDC04661
:1029900010B504000120FFF7C5FC034BC3189B00D2
:1029A0002360BFF35F8F10BD40000034034B9C4693
:1029B000614489000160BFF35F8F704740000034BD
:1029C0000A4B1968EFF3108072B60A68002AFCD02F
:1029D000BFF35F8F1B68BFF35F8F00221A6080F325
:1029E000108840BF002000217047C04664D10020FD
:1029F000F0B5DE4657464E464546E0B587B0EFF3A4
:102A00000583032201251A40954091008846A94676
:102A1000B34B03925C58B34B1D60B34B04934B46CE
:102A2000B24843630823E55E002D37DAA3881BB262
:102A3000002B00DBADE0A379002B00D0EEE00823F3
:102A4000E05E002820DB430062691B18DB00D3181E
:102A50009E68DD68731C00D111E1A4480100414467
:102A6000826A0B69B71A9B1A9F4215D30123026A27
:102A7000039883401A420FD09C4800F093FC8D428B
:102A800002DCCCD18642CAD940BF07B0F0BCBB46FD
:102A9000B246A946A046F0BD0E61EDE762696B0043
:102AA00092465B19DB009A4453469E68DF6800F04B
:102AB00079FC8F42BADC00D103E1002F00DAE8E0B4
:102AC0005246534652691B699346049A934200D179
:102AD000D9E052460821605E5288000459461043EE
:102AE0009847009001910099019A0B001000134340
:102AF00000D1CEE013000A00B61A9F41002806DB81
:102B00007A4800F04FFC009E019F36184F41534613
:102B10009E60DF6000229A5E002A00DA86E753009A
:102B200099186069C900411802938B68C9689B466F
:102B3000B94200DD7AE702D1B34200D976E7082333
:102B40009C46A444059565462281A446029B2C0020
:102B500006E053009918C90041188D68C968AB4652
:102B60009B18DB00C318B94206DC00D1B3E01C009F
:102B70000023E25E002AECDA230064469C465346BA
:102B80001A806346059D1D80A3881BB2002B00DAC6
:102B900051E72269EFF3108172B61368002BFCD065
:102BA000BFF35F8F0123A7885B42A3803FB22369F5
:102BB000BFF35F8F00221A6081F31088002F00DAC4
:102BC00039E72300083322009A4666697B00DB1947
:102BD000DB00F318996850468C460824115FDD68C5
:102BE000002910DB029306E0AB4244D00023E15EF3
:102BF0002000002906DB4C006418E4003419E36867
:102C0000AB42F1DD029B078000201F5E1980002F80
:102C1000DCDA1400A379002B00D110E70023A371A4
:102C200026000823E15E08364B1C00D12CE7080083
:102C3000A246656902E03E004B1C1AD04B005B18AF
:102C4000DB00EF180A008C46E95E7B881BB2002B84
:102C5000F1DA01235B42DC17BB60FC60824205D0E5
:102C6000534631801B893B8053461A8160464B1C7A
:102C7000E4D15446E5E6A3686345B7D9C2E76B1CC7
:102C800000D0EAE6F8E65B4658461B6998470028FC
:102C90001BD153461B8822692381EFF3108372B640
:102CA00011680029FCD0BFF35F8F514662880A800B
:102CB00022696580BFF35F8F0021116083F3108864
:102CC000B4E6864200D8F8E6B0E65B461A685B6870
:102CD0000092019307E7B34500D848E74CE7C046A8
:102CE0002CD000203C700540F12900100040054028
:102CF00070B52E4C2569002D04D00A212C48FFF711
:102D000009FE70BD2B4E0321300000F041FBE66050
:102D1000FFF7FCFA284B03229C46D02322701B06A7
:102D20001B6801216370254B6044A3600F23800062
:102D300020610220638063694942A18019800231C9
:102D4000198647311D83585218315A5275325C39F1
:102D50009952183201319952183201319952183270
:102D600001319952083518329D5202311832995268
:102D70001832013199521832013199521832013109
:102D800099521832013199521832013199520C4B33
:102D90000C49DC6001303562FFF72EFB0121032076
:102DA000FFF7F2FA084B1D60A7E7C046FC100020B1
:102DB00064D100200040054040000034FFFF1000B7
:102DC0002CD00020F12900103860054000487047E1
:102DD000FC100020F8B51F0008AB1B78040016009B
:102DE000002B08D100F0E6FA32003B00121A8B41AA
:102DF000002B00DA52E02269EFF3108072B61368FC
:102E0000002BFCD0BFF35F8F0223E15E63694A00B1
:102E10005218D2009B182269002936DB1D88658074
:102E2000BFF35F8F0025156080F31088069A9E60BF
:102E3000DF601A61079A5A615A8801325204520CB3
:102E4000101C002A1FD082B2588008041043266943
:102E5000EFF3108772B63268002AFCD0BFF35F8FA1
:102E6000A2881A80A1802369BFF35F8F00221A60B5
:102E700087F310880A4923788C4601329A40E36828
:102E800063441A60F8BD0120DDE7BFF35F8F0023C4
:102E9000136080F3108801204042F3E70020F1E73F
:102EA0003C20000070B501000469EFF3108C72B68D
:102EB00020680028FCD0BFF35F8F02200D5E4C69B4
:102EC00068004019C00024180869002D36DB2688E8
:102ED0004E80BFF35F8F002606608CF31088E3609E
:102EE00063880498013320615B0405985B0CA26041
:102EF00060611A1C002B1FD093B228046280184313
:102F00000A69EFF3108C72B61368002BFCD0BFF384
:102F10005F8F8B8823808D800B69BFF35F8F0022CA
:102F20001A608CF310880B7801329A40CB680849FC
:102F30008C4663441A6070BD0122DDE7BFF35F8FEA
:102F4000002303608CF3108801204042F3E7C04661
:102F50003C20000010B543890A1493421ADD530047
:102F60009B184269DB00D3180469EFF3108C72B62A
:102F70002268002AFCD0BFF35F8F5A88090494B2FC
:102F8000090C8A4208D00369BFF35F8F00221A60E0
:102F90008CF31088002010BD8022120214435C8044
:102FA000012302698371BFF35F8F002111608CF3ED
:102FB0001088044902788C469340C268012062441C
:102FC0001360E8E73C20000040787047F0B5060049
:102FD0000F0006246442E517C646A4197D4100B5DA
:102FE00082B08D4214D811D000F0E4F922002B00F9
:102FF000121A8B41002B15DC002B44D03000390015
:1030000000F0E2F902B080BCB846F0BD8442EBD9D2
:103010000024002500F0CEF922002B00121A8B416B
:10302000002BE9DD00F0C6F922002B00121A8B41BB
:10303000002B0ADB00230193144B22000093144859
:103040002B00FFF72FFF0130D8D0A0462900002425
:10305000104A1148536A994204D8956A4545CDD221
:103060009942CBD10568EFF3108C72B62B68002B18
:10307000FCD0BFF35F8F0368BFF35F8F1C608CF3DE
:10308000108820BFE6E7002AB8D0CBE7C12900109E
:10309000FC1000200040054064D10020F0B5C64679
:1030A00000B582B004000D0000F084F924184D41F1
:1030B000002D02DA01242F4D644206267642F717CE
:1030C00036196F41AF4214D811D000F073F93200B5
:1030D0003B00121A8B41002B15DC002B46D0200040
:1030E000290000F071F902B080BCB846F0BDA642DC
:1030F000EBD90026002700F05DF932003B00121AE0
:103100008B41002BE9DD00F055F932003B00121A2B
:103110008B41002B0ADB00230193174B32000093F5
:1031200016483B00FFF7BEFE0130D8D0002339001F
:10313000B0469C46124A1348536A994204D8966A8C
:103140004645CCD29942CAD10668EFF3108772B6D1
:103150003368002BFCD0BFF35F8F0368BFF35F8F32
:1031600066461E6087F3108820BFE5E7002AB6D0C8
:10317000C9E7C046FFFFFF7FC1290010FC100020F7
:103180000040054064D10020F0B5C64600B582B0CD
:10319000040000F00FF9FA2206000F0020000023BF
:1031A0000021920000F0E8FF8019794104000D1E13
:1031B00002DA01242E4D644206267642F7173619AC
:1031C0006F41AF4214D811D000F0F4F832003B0048
:1031D000121A8B41002B15DC002B46D02000290051
:1031E00000F0F2F802B080BCB846F0BDA642EBD9C0
:1031F0000026002700F0DEF832003B00121A8B4157
:10320000002BE9DD00F0D6F832003B00121A8B41AA
:10321000002B0ADB00230193164B32000093164863
:103220003B00FFF73FFE0130D8D000233900B04605
:103230009C46124A1248536A994204D8966A4645F7
:10324000CCD29942CAD10668EFF3108772B63368C0
:10325000002BFCD0BFF35F8F0368BFF35F8F664620
:103260001E6087F3108820BFE5E7002AB6D0C9E7C3
:10327000FFFFFF7FC1290010FC1000200040054027
:1032800064D10020F0B557464E46DE464546E0B5CF
:1032900006000F0085B0EFF3058399468B46002B9F
:1032A00012D0384900204B6ABB4206D38A6ADB1B26
:1032B000591E8B41B2424041184305B0F0BCBB4699
:1032C000B246A946A046F0BD2F4B9A46DB68984609
:1032D00053461B784046039300F064F84246039B34
:1032E000040004339B009B580D001B1A390030006A
:1032F000001BA941894510DC0DD020BF214A0020C8
:10330000536A5B45D9D3926ADB1B591E8B41B2428B
:1033100040411843D1E78342EFD900F04BF8320027
:103320003B00121A8B41002B1ADB00230193174B31
:103330003200009350463B00FFF7B4FD011E0FDD45
:10334000104B5A6A5A451BD39B6AB34216D3504658
:10335000FFF700FE0B4A0020536A5B45ADD3D2E76E
:10336000084A0020536A5B45A7D30020926ADB1B02
:10337000B24240415A1E934118439EE75A45E6D156
:1033800020BFE4E700400540FC100020C1290010E8
:1033900010B5024A0248FEF737FF10BD80970110B2
:1033A0002C2300200300416A0A00986A596A8A4265
:1033B000FAD17047034B596A0A00986A596A9142D8
:1033C000FAD1704700400540064A536A9942FCD83A
:1033D00007D1044B02E05A6A914202D19A6A9042A4
:1033E000F9D8704700400540F8B5DE464E465746CE
:1033F0004546E0B58B4605000A991800160000F016
:1034000041FB0A9B6C001F02324B64199C46A400CE
:103410006444636881469F4200D967602B1FDBB21A
:103420009846012B30D9C02380229B01E31812015A
:103430001A60294BAD0059599A4600291BD17301D6
:10344000E026226853401E40802342465B01E31879
:103450001E60012A30D9802380229B01E3181201CB
:103460001A6053464A4667605A51F0BCBB46B246A2
:10347000A946A046F8BD586900F004FB013043009E
:103480001B18033BFDD2DAE75B46012BCBD1C023EF
:1034900003229B01E3181A60023AA3681A42FCD087
:1034A0007301E0262268AD0053401E4080230A4A83
:1034B0005B019246E3181E605A4621685140032280
:1034C0000A401A6001225B469A40A3681A42FCD067
:1034D000C1E7C0460080004034230020F0B54646D6
:1034E0004F46D646C0B51F00344B44009C462418B6
:1034F000A4006444636888461600FF2B02D880232A
:103500005B006360031FDBB29A46012B30D9C023F6
:1035100080229B01E31812011A60294B850059593A
:10352000994600291BD17301E026226853401E40B2
:10353000802352465B01E3181E60012A30D98023A4
:1035400080229B01E31812011A6080235B006360F4
:103550004B465F51E0BCBA46B146A846F0BD58693B
:1035600000F090FA013043001B18033BFDD2DAE76C
:103570004346012BCBD1C02303229B01E3181A60E1
:10358000023AA3681A42FCD07301E0262268850043
:1035900053401E4080230A4A5B019146E3181E6097
:1035A00042462168514003220A401A6001234246E4
:1035B0009340A2681342FCD0C1E7C046008000409F
:1035C00034230020014B8000C05870473423002072
:1035D000F8B5040021481E0017000D0000F052FA53
:1035E0000100380000F04EFA069B36041B031E4310
:1035F0002368002B20DB1A4B1A49E3185A1E93410B
:103600008022920194465B421B0B174A1B036344C2
:103610001360164A13601F000A689743FBD1144BCE
:103620002560E2182123A06013602368002BFCDAD8
:103630000823E6601360F8BD3F2322681340AB42C5
:10364000D9D1A3681B051B0D8342D4D1EE22E368B8
:10365000D2021340B342CED1EDE7C046001BB70003
:103660000040FDBF08C0004000E0004000F0004006
:103670000430000010B580241C4BE4051C600028B9
:103680001AD001231A4C18431A4BDC611A4C4440DF
:103690001C62596298628021144BC9051960174851
:1036A00017490860E021C9041960002A07D1802267
:1036B000144B12061A6010BD0E4BD861EBE7530194
:1036C0009B1A9B009A18802312015B049A4209D22C
:1036D00013000D490B60074B5A608022094BD2053D
:1036E0001A60E8E7094B1A00F3E7C04600B005404E
:1036F000D3C007B0008005402D3FF84FFCFF01000C
:103700000820014000A0054078360020FFFFFF00A0
:103710008023024A9B000B43D36270470080054020
:10372000002310B50100988A1B8B984710BDC04636
:10373000162310B50100188802331B88984710BD66
:10374000F8B54746CE4680B50F1E18D014239946CB
:10375000043304000025012698464B46188843464A
:1037600021681B88984701C4431E984101350640D3
:10377000AF42F2D13000C0BCB946B046F8BD012618
:10378000F8E7C046002370B504000D00988A05498B
:103790001B8B984703000020002C01DB0130A04068
:1037A0002900984755420000AA23064A1B011360CE
:1037B0008D235B00D3600449044B19605368002BD0
:1037C000FCDA70470040024000B0FA00006002409E
:1037D0007047C04610B50148FEF7E8FCA4970110F9
:1037E00070B5074D074EB54209D20024013E761B45
:1037F000B60808CD984723000134B342F9D170BD13
:10380000A0890110DC890110054B064A06491A609F
:10381000064A074B1A6010000B689843FBD17047AB
:1038200000E00040BFCDFBFE08C00040FE7F3C0032
:1038300000F00040044BDB6C002B03D18022034BD3
:10384000D2021A607047C046000011504C2011503F
:10385000044A054B1A60054A1368DB018033FBD12B
:103860007047C046FFFFFF0100F0004008C0004065
:103870004022034B9A675A671A67DA667047C04658
:1038800000F0014010B5FEF75FFD10BDF8B5274907
:10389000274C284D641AA6103200302E00D9302251
:1038A0002800920000F0A2FDBC2C3BD830202F2332
:1038B0002C196407204A801BE40F9B1B052B16D98B
:1038C0003700002C02D0B300771CEA50001B3319DC
:1038D0009B004108EB18C900C9181A605A600833E8
:1038E0009942FAD1012303421CD09843C619B30070
:1038F000EA50731C2F2E15D09B00EA50B31C2E2EBD
:1039000010D09B00EA50F31C2D2E0BD09B00EA50E8
:10391000331D2C2E06D09B00EA50731D2B2E01D098
:103920009B00EA50054B9D60F8BDC04600010010A9
:10393000C001001000000020C101001000ED00E0F7
:10394000002310B5294C82B0A367FFF72DFF012299
:10395000274B1A60636C012BFCD10322254B1A60A4
:10396000224A936B012BFCD1013300930121224A9F
:1039700022480433FFF72CFE052301210093204A3F
:103980002048FFF725FE0022022104201E4BFFF7EE
:10399000A5FD0022012105201C4BFFF79FFD002201
:1039A000002107201A4BFFF799FD00220021082073
:1039B000174BFFF793FD8023DB00009300220021CB
:1039C0000920134BFFF710FD0022104B00210620A9
:1039D000FFF784FD0420FFF7F5FD0E4900F052F8D3
:1039E00001000020FFF794FE02B010BD00800040EF
:1039F0003CB0004030B00040002F685900800240C9
:103A0000008C864700C00240001BB7004059730776
:103A1000006CDC0240420F0001480421014B1847B2
:103A20002011002041370010014B9B68184700000F
:103A300020110020124A936F9B0815D29066D16620
:103A4000002905D0FFE7FFE7FFE7516F106F7047D0
:103A500004B580210906C2175140002800D0C84390
:103A600014F056FF002104BDF0B5146E556E576F6B
:103A7000166FFFF7E3FF1466556657671667F0BDCC
:103A8000000000D0114A936F9B0813D21066516654
:103A9000002905D0FFE7FFE7FFE7516F106F704780
:103AA00004B5002801D00020C04314F031FF0021EC
:103AB00004BDC046F0B5146E556E576F166FFFF714
:103AC000E5FF1466556657671667F0BD000000D025
:103AD00094464A4A926F9208624601D228E0C04654
:103AE000F0B5464E346E756E776F366F00F020F885
:103AF0009446424A14665566576716676246F0BD9B
:103B000094463E4A926F9208624601D254E0C04603
:103B1000F0B53A4E346E756E776F366F00F04CF834
:103B20009446364A14665566576716676246F0BD76
:103B3000002B24DB11D000293EDA00B5C9434042F6
:103B400000D1013100F038F8C943404200D10131C1
:103B5000DB43524200D1013300BD002AEBD10028E3
:103B600001D1002905D00020C90FC90701D1C043E8
:103B7000410800B514F0BCFE0022002300BD00B5D2
:103B800000290ADBDB43524200D1013300F014F874
:103B9000C943404200D1013100BDC943404200D178
:103BA0000131DB43524200D1013300F005F8DB4321
:103BB000524200D1013300BD002923D1002B18D17E
:103BC000002A0CD0BC460D4F38667A6600210023CF
:103BD000FFE7FFE7FFE77A6F386F67467047002817
:103BE00001D00748010000B514F082FE0022002336
:103BF00000BD02000B00002000217047000000D033
:103C0000FFFFFFFF002B00D0BFE0130C28D1002ADC
:103C1000E7D080B4114F39667A66FFE7FFE730B42A
:103C2000040C7B6F396F1B0423433B667A66FFE706
:103C3000FFE7FFE7C04684B27B6F3D6F1B04234361
:103C40003B667A66FFE7FFE7C04600232C042D0C95
:103C50007A6F386F00196941B0BC7047000000D01E
:103C6000F0B594460025140E01D112020835140F48
:103C700001D112010435940F01D192000235D40F05
:103C800001D152000135D40B0134254F7C66254CFF
:103C90003C660E0C93B2FFE7FFE7FFE73C6F66431D
:103CA000360C7703BE467343DF0B5B04C01AB94181
:103CB000130C7343DB18C91ACE086643360CB6449E
:103CC00093B273431F0F1B01C01AB941130C734306
:103CD0001F0B1B05C01AB941860D8F023E43664378
:103CE000360C092D24DB520A7243801A7703460AE8
:103CF0006643360C16235B1BDE40DF40BF1964466B
:103D00006643821B7046043506330100D940A84043
:103D1000C01900D30131A24206D20023F0BD000039
:103D2000000000D0FFFFFFFF121B0130F3D3F1E7CB
:103D300009277F1BFE406446A2B27243801A00D25C
:103D40000139220C7243130C1204821A99410B00A0
:103D50007046043513370100F940A840801900D39C
:103D60000131002B02D1A2420AD2F0BD013000D3B2
:103D70000131121BFAD2013BF8D1A24200D2F0BDB0
:103D8000013000D30131121BF7E7F0B51C0C00D055
:103D900080E00CB400251C0A04D11B02160E33432C
:103DA000120208351C0B04D11B01160F33431201FC
:103DB00004359C0B04D19B00960F334392000235CF
:103DC000DC0B02D192185B4101351C00971864414D
:103DD0000134464F7C66464C3C660E0CFFE7FFE71D
:103DE000FFE7C0463C6F6643360C7703BE4697B28A
:103DF0007743C01B00D20139C01B00D201399FB2EA
:103E00007743C91BC91B170C77437E04FF0B801B2C
:103E1000B941CE086643360C0C2D33DBB644120B89
:103E20001F053A431B0B97B27743C01B00D20139E1
:103E30009FB27743C91B170C77433E043F0C801B8E
:103E4000B941860D8F023E43664329277F1BFE4002
:103E50000C3D7746AF40BF1930BCA2B2ABB2724343
:103E60007343801A9941220C7243130C1204801A76
:103E7000994102000B000137001BA941F9D2781EBD
:103E80000021F0BD0C277F1BFE4077467F0BAF4023
:103E9000FF19E0E700245D1C07D0144F7D663966EA
:103EA000FFE7FFE7FFE7FFE73C6F95B29EB2654390
:103EB0006643401BB141150C1E0C65436643360436
:103EC0002F0C3E432D04401BB141994204D2020005
:103ED0000B0020000021F0BD01D19042F7D3801AE1
:103EE000994101349942F2D3F6E70000000000D076
:103EF000FFFFFFFF48404140484018B4134B5B6848
:103F0000019308BD18B4114B1B68019308BD94467A
:103F10000F4A926F920805D2624618B40B4BDB68C9
:103F2000019308BD0A4AF0B5146E556E576F166FAF
:103F30006246FFF7F2FF064A146655665767166732
:103F4000F0BD18B4014B9B68019308BD081900200F
:103F5000000000D0FFB550404240504059404B4017
:103F6000594000E0FFB5154F4C00640D03D0BC4232
:103F700004D10C0314D80020090D09055C00640D60
:103F800003D0BC4204D11C030AD800221B0D1B0520
:103F900001264B4009D44B4003D58B4200D18242CD
:103FA000FFBD9942FCD19042FFBD0B43DB18034398
:103FB0001343F5D0C9434918FFBD0000FF070000B7
:103FC00000B5FFF7CFFF804100BDC04600B5FFF749
:103FD000C9FF01D9002000BD012000BD00B5FFF7D9
:103FE000B9FF01D9002000BD012000BD00B5FFF7D9
:103FF000B1FF804100BD012040054A00121804D8DD
:104000005A00121801D800207047012070470000A4
:104010000021002805D17047C1174840401AFAD046
:10402000C90713B5064B1B6898470CBC441CA2403B
:104030001005120B0349091B09051943114310BD53
:1040400060D000201F04000010B54C00620D8023DA
:10405000D218DB00D21A5B057E2A10DD9E3A13DAF5
:10406000CC170903490819435242D1406400013476
:104070001532202A05DAD0400843604310BD0020E5
:1040800010BD0846604310BDC80FC018013810BDF0
:1040900018B4024B5B6A019308BD000008190020A8
:1040A00010B50148FEF782F8B0970110132370B5E0
:1040B0001D78012D19D014DD1D48FFF739FB0600CE
:1040C0001C48FFF735FB1C4C80223100200000F01B
:1040D0008DF9022D06D01948FFF722FB184B186006
:1040E00070BD154C174BA364F5E7174B124C2360BA
:1040F0006360A360E36023616361A361E3612362A2
:104100006362A362E36223636363A363E363236481
:104110006364A364E36423656365A365E365236661
:104120006366A366E36623676367A367E367D9E70C
:104130005344000053460000081900204C3300008F
:1041400060D000204D410010A140001007B560462E
:1041500001880A0A0230DF2AFAD1C9B2820804D3E0
:10416000028840880004104300E00068014A505073
:10417000039007BD0819002051434343C9188C46DA
:10418000110C83B24B4310B4040C614392B280B261
:10419000504362431C041B0C001910BC594113040A
:1041A000120CC01851416144704700004840414022
:1041B00048400E4B5B6818470C4B1B6818470C4A6D
:1041C000936F9B0802D2094BDB681847F0B5146E59
:1041D000556E576F166FFFF7F6FF054A1466556662
:1041E00057671667F0BD014B9B68184764D00020E5
:1041F000000000D007B548404140484001E0C046BB
:1042000007B54200120E03D0FF2A03D1420218D88C
:10421000C00DC0054A00120E03D0FF2A03D14A0286
:104220000FD8C90DC9050122414005D4414001D52F
:10423000814207BD884207BD0143491801D0C043F0
:10424000001807BD00B5FFF7DBFF804100BDC04689
:10425000C10FC90700D54042002817D0F44603B467
:104260000B4B1B68984706BC81409E38404280310A
:1042700007D20B0607D04900490AC005104308437E
:1042800060470130F8E7490A8902F5E77047000006
:1042900060D0002041000A0E80231B067E2A0BDD21
:1042A0009E3A0BDAC1174002400818435242D040F0
:1042B000490001314843704700207047C00FC018C3
:1042C00001387047C0420DD300B5400040080021BE
:1042D00000F00EF8002801D4404200BD8020000606
:1042E00000BD0000014BDB691847000064D00020CE
:1042F000014B5B6A1847000064D00020034A104756
:10430000C2179142FAD0024BDB6D184751420010A0
:1043100064D0002010B50148FDF748FF84AE0110BD
:10432000132310B510481C78FFF702FA0100012C86
:104330000AD003DD80220D4800F058F80C48FFF742
:10434000EFF90C4B186010BD084C5422200000F00F
:104350004DF82200084980322368002B00D12160EB
:1043600004349442F8D1E9E75346000064D00020B9
:104370004C33000060D000201543001010B504003D
:1043800013F08CFA002804D0034B04199C4200D887
:1043900010BD0248FDF70AFF00000420C897011075
:1043A00070B505000C0013F019FA6C43002804D016
:1043B000034B04199C4200D870BD0248FDF7F6FE7D
:1043C00000000420C897011010B513F071FA10BD59
:1043D00001480421014B18473011002041370010DB
:1043E000014B1B681847000030110020014B5B682F
:1043F00018470000301100209A4200D288547047BC
:104400007047C046F8B55746DE464E464546E0B5CD
:1044100099460A9B07009A460D9B884693460B9C3B
:104420009B073BD10C9B9C423DD21E1B0B9415005D
:104430000C005E442A004B46013521002020B8477D
:10444000B542F7D1A0460B9C002C20D0454636192A
:104450005346321B013C185D29004B46B847002CDF
:10446000F6D12B00350098460D9B9B070FD55B4678
:10447000EC1A0C9BA3420AD9464698462A004B46A2
:10448000310020200134B84701354445F6D32800D7
:10449000F0BCBB46B246A946A046F8BD16001500C2
:1044A000002CD3D1E0E716001500002CCED1EEE7AA
:1044B000F0B54546DE4657464E46E0B585B09C46CB
:1044C00010AB1B78149F934698460F9C129E139D29
:1044D000BB074CD4002D42D1B44248D201233B400B
:1044E00099460E9B013B9A46302304E05246013424
:1044F0001355A64201D9202CF8D14B46002B00D1F0
:1045000083E00E9B013B99463023A54205D82EE05F
:104510004A4601341355AC4229D0202CF8D1FB0671
:104520000CD57B0554D4A64263D0A54261D0119B23
:10453000102B50D0022B57D0202C32D120230193A6
:104540000E9B5A460093039763460295FFF75AFF66
:1045500005B0F0BCBB46B246A946A046F0BD01235B
:104560003B40994601233B422AD1B442B9D3FB06D2
:104570001CD57B05DBD4002CD5D1119B102B5BD037
:10458000119B022B6BD0302301240E9A13704346EB
:10459000002B10D17B073ED52B260E9A631C165597
:1045A000CDE72300013430260E9AD654202CC5D0F6
:1045B0004346002BEED02D260E9A631C1655BEE7FF
:1045C0004346002B2FD0013DB44200D289E798E743
:1045D000119B102BB2D1BB0637D5202CAED058235F
:1045E0000E9A13550134A7E7202CA7D023000134DD
:1045F00007E0631E012CC0D0119A102A31D0022A84
:10460000D1D162260E9AD65496E7FB06CED57B050D
:1046100000D488E78BE723003E0790D520260E9A2A
:10462000013316558BE70C233B405A1E9341ED1A7C
:10463000B44200D255E764E7BB060ED478230E9A45
:104640000224137030235370A1E7202C00D175E7AA
:1046500078230E9A135501346EE75823EFE7603341
:10466000EDE70E9AA61E91464E44BA0602D5582290
:10467000327098E77822327095E7C04610B500286E
:1046800000D110BD01F0C2FCFBE7C0460B0010B525
:10469000002802D049681B68984710BDF0B55746FE
:1046A000DE464E464546E0B595B083460F0092463D
:1046B00098461E9A1F9B10001900209EFFF79BFC36
:1046C000002800D0EAE11E981F990122C54B5242F2
:1046D000FFF776FC002800D014E11E981F990122F4
:1046E000C14B5242FFF782FC002800D0E9E01E983F
:1046F0001F990022BD4BFFF779FC002800D0C8E0CD
:104700001E981F990022BA4BFFF75AFC002800D0D0
:10471000BFE01E981F9900220023FFF751FC0028DC
:1047200000D0E4E000230B93229B5B0500D4062617
:104730000024302307E0172106AA0134521813552C
:10474000013E202C01D0092EF5D81E981F99FFF7A5
:104750007BFCA84BF2009B181A685B680500089266
:104760000993FFF759FC02000B001E981F99FFF7F1
:10477000C4FB089A099BFFF7E4FB06900791FFF73B
:1047800087FC8146FFF744FC02000B00069807995E
:10479000FFF7B3FB0022984B06900791FFF726FC2A
:1047A000002800D10DE101239C46E1444846FFF773
:1047B0002FFC02000B0008980999FFF707FC00285E
:1047C00002D0002399460135002E00D1D9E006958C
:1047D0004D46B94614E006AA944617230A216344BD
:1047E000280001341F19FFF74DF9303139702800C6
:1047F0000A21013EFFF746F9092D00D817E105000F
:10480000202CE8D14F46069D20240CAE06AA172383
:104810009446634499465B46B34606930FE04B4685
:1048200028000A210134E618FFF704F93031280086
:1048300031700A21FFF7FEF8051E00D1E4E0202CBC
:10484000EDD1069B5E469B460323229A1340012B23
:1048500018D1219B002B15D00B9B002B00D1FDE024
:10486000219B013B2193202B0CD93023219A07E077
:10487000172006A9013409180B55944200D3CCE047
:10488000202CF5D1229B01940393219B0096029347
:1048900022E0229B52460493219B39000393584601
:1048A0001E9B1F9C029600930194434600F04AF918
:1048B0000400200015B0F0BCBB46B246A946A04695
:1048C000F0BD229B5B070FD403224C4B229901922F
:1048D000039121990093029143465246390058466C
:1048E000FFF790FD0400E4E70422454BEEE71E9A33
:1048F0001F9B00200021FFF700FB01231E901F914A
:104900000B9311E7229B54469B0711D1219B042B4B
:104910000ED9219B55469C465E46043C64442A00C1
:104920004346013539002020B047A542F7D1B346B0
:10493000344D26002B1F99465B46A3461C003200CF
:10494000E87843463900013DA04701364D45F6D190
:1049500023005C469B46229B04349B07A9D5534603
:10496000219AE31A9A42A4D95E46150022004346D2
:1049700039002020B04753460134E31A9D42F5D850
:1049800097E72800FFF748FB02000B001E981F99CD
:10499000FFF7B3FA0022184B06900791FFF710FBC0
:1049A0000CAE002800D031E7069807990022124B80
:1049B000FFF71CFB002800D028E7012301359D43A9
:1049C00024E70022069807990B4BFFF7F9FA002815
:1049D00000D0F9E64B46002B5CD101239C46E14414
:1049E000F2E6C046FFFFEFFFFFFFEF7F65CDCD4151
:1049F00065CDCDC108B601100000E03F2C98011034
:104A00002498011034980110069B5E469B460323B0
:104A1000229A1340012B00D181E0202C00D131E7F4
:104A20000B9B002B27D02D23335501342AE74F460B
:104A3000069D202C00D1E7E63022331907E017202D
:104A400006A9013409180A55202C00D1DCE6A3423E
:104A5000F5D12E220CAE0134F254D7E60C23229A63
:104A6000134257D0219B013B2193A34200D9FCE67E
:104A7000202C00D106E7229B5B0703D52B2333555F
:104A80000134FFE6229B1B0700D4FBE620233355AD
:104A90000134F7E6DB0700D496E69EE7229B5546F5
:104AA0009B0711D1219B032B0ED9219B54469C4679
:104AB0005E46033D65442200434601343900202010
:104AC000B047AC42F7D1B346B9465F461C4EEC1C2A
:104AD0002A00B078434649460135B847013EAC420A
:104AE000F6D1229BBB464F469B0700D4E1E65346D6
:104AF000219AE31A9A4200D8DBE65E4615002200AE
:104B0000434639002020B04753460134E31AAB42F4
:104B1000F5D3CEE6219BA34200D9A6E6B2E6219BBF
:104B2000002B00D179E70B9B002B97D0219B013BF9
:104B300021939C4200D298E6202C00D073E7A1E696
:104B400030980110F0B5DE4657464E464546E0B572
:104B500099B081468B4692469846229A239B100034
:104B60001900FFF748FA002800D0CAE022982399DC
:104B70000122824B5242FFF739FA002800D0C0E0F0
:104B80002298239901227E4B5242FFF719FA0028FE
:104B900000D0B6E02298239900220023FFF710FAF4
:104BA000002800D0C9E1229B239C0893099408980F
:104BB00009998023269ADB001A400D928022269CB8
:104BC0001201144022000B94269C07000E001C4288
:104BD00000D0ADE00B00034300D0D5E0002A00D0A8
:104BE0000AE2220006332493022313400C9302238B
:104BF000134200D002E2259B042B00D20FE2043BBB
:104C00000B93002304250A93002222982399002362
:104C1000FFF7D6F9002800D003E25A4B269A13403A
:104C200004930B9B0393249B0293089B099C009382
:104C300001945946434652464846FFF72FFD02006D
:104C40002020269B1F27034059424B415B421840BE
:104C5000531C0893594643464530C8470A9AD31710
:104C6000D4185C40D30F0A936B1E0B9308AB9C4681
:104C70000025674401E0202D0FD020000A21FEF717
:104C800001FF01357E193031317020000A21FEF715
:104C9000F9FE26000400092EEDD8052306930B9B90
:104CA00059460593002304930A3303930A9B48460D
:104CB000029310AB0093089A43460195FFF7F8FB67
:104CC0000C9B002B2DD05346C41A259BA34228D9F8
:104CD0004D465F4681461E00534639001A19202072
:104CE00043460134A847A642F6D85346484625997C
:104CF000C21A01320023914200D386E10130181814
:104D00000FE0269B0493259B0393249B0293229BF5
:104D1000239C009301944346524659464846FFF768
:104D2000BDFC19B0F0BCBB46B246A946A046F0BDDA
:104D300001432BD10B9B2200002B00D154E7002311
:104D40000A93249B0A9A0024934200DD85E122986D
:104D5000239900220023FFF733F9002800D035E122
:104D6000269B084A02941A408023DB0013430493D5
:104D7000259B0393089B099CCBE7C046FFFFEF7F71
:104D8000FFFFEFFFFFF7FFFF06232493B44B7000F4
:104D90009C46400D6044FFF73FF9B24AB24BFFF723
:104DA000D0F8B24AB24BFFF7ADF83603B14B360B31
:104DB000334304000D00380019000022AE4BFFF70A
:104DC0009CF8AE4AAE4BFFF7BCF802000B00200087
:104DD0002900FFF797F8FFF737F90A90FFF71CF95A
:104DE000A84AA94B04000D00FFF7ABF80022A74B1F
:104DF000FFF788F8FFF728F9A54A0600A54B200021
:104E00002900FFF79EF8040030000D000C96FFF714
:104E100003F9A14AA14BFFF794F802000B00200010
:104E20002900FFF76AF802000B0006000F00FFF7E9
:104E300088F8320004000D003B0030003900FFF715
:104E400061F800220E900F91954B20002900FFF78A
:104E50005EF80022934BFFF755F802000B0020008C
:104E60002900FFF754F800228F4BFFF74BF80200A0
:104E70000B0020002900FFF74AF80D0080210400F4
:104E800032003B000020C905FFF737F802000B0095
:104E900020002900FFF736F802000B000E980F994A
:104EA000FFF735F80022734BFFF72CF87F4B0C9C73
:104EB0009C46644400222305FFF743F806000F00D8
:104EC00002000B0008980999FFF77AF800280AD029
:104ED0000A9B3000013B39000A930022714BFFF717
:104EE00016F806000F000A9A330063323900C62A0A
:104EF00012D802222698042510400B9A0C90002A02
:104F000025D1259B042B05D9002800D0A1E0259BA5
:104F1000043B0B93042541E00222269810400B9A93
:104F20000C90002A12D1259B052B76D9002872D12E
:104F3000259B0525053B0B9334E080221206944601
:104F4000229B0893239B6344099330E605250B437A
:104F500000D1F6E608980999554A564BFFF73EF8F6
:104F6000002808D0089809990022534BFFF728F829
:104F7000002800D0E5E6249B002B1CD00D9B002BC5
:104F800019D0249B013B2493259BAB4204D90C9B55
:104F9000002B5AD002230C9300230B930A9B002B67
:104FA00000D131E60898099932003B00FEF7AFFFC7
:104FB0000890099128E6259BAB42EDD90C9B002B6C
:104FC00043D000230B9302330C93E7E78020269B0A
:104FD0003A4A00061A40802384460294089C099DA0
:104FE0002900DB0013430493259B614422000393B3
:104FF0000B00009201938EE60524A8E600230B9394
:105000000A93023304250C93FEE553468C46013B7C
:1050100063441B1A72E602230C930525C2E704239E
:10502000EDE58020089E099F000639008446269AF7
:10503000224B6144134004930B9B32000393249B47
:1050400002930B0000920193F3E5259B5B1B0B93EE
:10505000A4E7022304250C93A0E79C1A013C76E602
:1050600001FCFFFFFB799F501344D33FB3C8608B13
:10507000288AC63F0000F03F0000F83F61436F639D
:10508000A787D23F71A379094F930A400000E03F00
:105090001655B5BBB16B0240EF39FAFE422EE63F22
:1050A00000002C400000244000001840FF030000D6
:1050B0002D431CEBE2361A3F80842E41FFF7FFFFA1
:1050C000F0B5DE4657464E464546E0B5A5B01E0053
:1050D0002E9B92460C93CD4ACD4B80468B461A6050
:1050E000002900D1EAE1002330789946002800D158
:1050F000ECE1C84B4C460B93C74B454657460E93C5
:105100000AE0631C984622003B005946A8474446E3
:105110003078002800D187E001362528F1D1082316
:105120009A46043B9946023B9846013B00229C4626
:105130000D943078711C0300203BDBB2102B03D898
:105140000B9C9B00E3589F460300303B89460D9C17
:10515000092B3AD9002398462A2800D1C1E0002320
:105160009A462E284BD00300683BDBB2122B1ED888
:105170000E999B00CB589F4663460E001A43D8E712
:1051800043460E001A43D4E74B460E001A43D0E7BD
:1051900010230E001A43CCE753460E001A43C8E70B
:1051A00080235B001A43FF3B9C467078E1444E46E7
:1051B00067284FD82428A4D90300253BDBB2422B13
:1051C0009FD896499B00CB589F46002394461E00CB
:1051D00000E00131B3009B195B001E180878303ED7
:1051E0000300303B092BF4D90123624689469C46D3
:1051F0000023B0469A460E00E1442E28B3D1302158
:10520000802049428C46C000024370784B4684445B
:105210006146092900D86CE12A2800D17AE10123EE
:105220009C464E46E1449EE7A146A846BA46CA457A
:1052300003D801235B425344994653464A46594694
:105240000020C047200025B0F0BCBB46B246A946AE
:10525000A046F0BD0300693BDBB20D930F2B00D9D4
:105260004FE7012199408C466D49894661464B467E
:1052700019400F91634649460B4200D028E10D9B2F
:105280000A2B3AD0072B00D03BE70C9B190008C92A
:105290008846002B00D14BE121200243914614A9FE
:1052A0008C461F220F2162448C4651460D950C916D
:1052B000A24615000F9902E020290CD01300644685
:1052C0001C4020003730092C00D8073801316854C1
:1052D0001A090F2BF0D80C9B54460D9D9A460F913E
:1052E00033E10C9B02CB8846002947DB0C9301235A
:1052F0009C4670784E46E14431E70C9B02CB1493F8
:105300005346002B00D138E19C4608780B000C90E6
:105310008C44002801D100F098FC894661469446EF
:1053200003E05A780133002A01D08B42F9D1494673
:1053300062465B1A0C900F93530500D520E10223BF
:10534000180010400D90134200D1CBE30D930B1BBE
:10535000B1469A465E460C9822003B003100A847B1
:1053600053460134185D0028F6D1B3464E460D9BD6
:10537000002B00D0C7E1149B0C93C9E60C930123CA
:105380009C46283849420243884670784E46E1449C
:10539000E5E670786C2800D17FE180235B001A433A
:1053A000FF3B9C46E14402E780239B001A43012314
:1053B0009C467078E144FAE67078682800D173E181
:1053C00080231A437F3B9C46E144F0E6672800D1E6
:1053D00003E1472800D15AE1452800D15AE104925F
:1053E000072142460C9B0392073352468B43190018
:1053F00002920CC92800009201930C9122003B00FC
:105400005946FFF79FFB040082E6C046C1500010DA
:105410007436002068B40110ACB40110F8B4011067
:1054200041900000462800D1DBE00492072142466B
:105430000C9B0392073352468B43190002920CC90E
:105440002800009201930C9122003B005946FFF77F
:1054500025F904005CE6631C984622003B0059468F
:105460002520A847444653E60C9B04330D93631C48
:105470009946920700D422E10C9B220018785946E5
:105480003B00A84743464444012B00D885E2330043
:10549000B8462E005F4625004C46994622004346FA
:1054A000013439002020B047AC42F7D12C00BB4674
:1054B000350047464E460D9B0C9329E6DB4B307872
:1054C000984600239946002800D012E60024AEE654
:1054D0006F2800D188E000D80BE31023782800D192
:1054E000CFE09A430A239C4600230F930A330D937F
:1054F00080E05646B1008919490001330E1818782A
:10550000303E010030390929F4D9B2461E0001337A
:10551000994628E60C9B023602CB8A46C943504680
:10552000C917084082460C933078731C99461AE6D6
:105530001023100098431133184381468020130034
:10554000C0000340024200D1A9E64B46069308235F
:1055500005935346049310230393002302930F9B58
:10556000220001931CAB009359463B002800FEF734
:105570009FFF434604000C93CAE501235B42C3E648
:105580000F9B534501D953460F9302231800104037
:105590000D90134200D1B7E10D93D1460B1B9A46F3
:1055A0003300A1442E0022004D460C98B9465F46B8
:1055B0009B4608E04B463900541CB0475346185DE3
:1055C000002877D022009542F4D15B46BB464F4677
:1055D000A94635004C461E00C9E680231B011A432C
:1055E000FDE620231A4320E708239C4600230F935F
:1055F00008330D9380231100DB0019401A4200D1BB
:1056000016E10D239A431000802302009B001A40EC
:105610001492184200D0C2E1802302005B001A40BD
:1056200091460C9A04320F92184200D0B7E243061A
:1056300000D59FE1030600D419E30C9B1B88099356
:10564000002B00D0FCE110339843002900D1F7E192
:105650000023994643460593534604930D9B0690B9
:1056600003930023D2E0582808D0622867D1022390
:105670009C4600230F9302330D93BBE720231A436C
:10568000103B9C4600230F9310330D93B2E7802309
:105690001B011A4320231A43A1E6C0239B001A438F
:1056A000F31C9946B07882E5C0231A43F31C99464F
:1056B000B0787CE535005E46BB464F4657E643462C
:1056C000012B00D863E1631E43449A463300B94678
:1056D0002E005F4655469B46A24622004B460134AB
:1056E00039002020B047AC42F7D135005E46BB46BA
:1056F0004F46A14654460C9B4A46187859463B00F3
:105700004444A847D7E6A1460F9B984500D832E607
:105710004444E41A3300B8462E005F4625004C4648
:10572000994622004346013439002020B047AC425C
:10573000F7D12C00BB46350047464E461BE680237A
:105740001000DB0018401A4200D10FE111211800AF
:105750008A430D920D9A802311009B0019408C46BC
:105760001A4269D1802311005B00194089460C99C7
:1057700004310F911A4200D0CAE113005B0600D534
:10578000F0E013001B0600D459E20C9B00229B5E44
:10579000D9175A184A4092B2D90F0C91002B00D158
:1057A000F9E1100014AA944642461F23149252466F
:1057B0006344A84616944D460400B946B2461F00FD
:1057C000159201E0202D0FD020000A21FEF75AF992
:1057D00001357E193031317020000A21FEF752F96F
:1057E00026000400092EEDD8149B4F46A9464546D5
:1057F0009846159B56469A46169C0D9B0693434623
:105800000593534604930A2303930C9B02934B4640
:1058100001931CAB2200009359463B002800FEF781
:1058200047FE0F9B04000C9372E4C0460144001035
:105830000C239A431000E7E607220C9B073393439F
:10584000013294469C4462460C920CCBD90F0F91C6
:105850001100194300D191E0D917139112915140D1
:10586000109113995940119110981199129A139B04
:10587000801A99411090119114AA0023944642462F
:105880009946149252461F336344A846B246169472
:105890004E46109C119DB94615921F0001E0202E26
:1058A00010D0200029000A220023FEF729F9013632
:1058B00030322B00BA550D0022000400002BEED12F
:1058C000092AECD8149B1094119545469846159BCF
:1058D0004F46B14656469A46169C0D9B0693434644
:1058E0000593534604930A2303930F9B02934B465D
:1058F00001931CAB2200009359463B002800FEF7A1
:10590000D7FD0400FFF704FC0F9B984500D8C1E1C8
:105910008023DB000D9343460F9A1B199B1A99466F
:1059200033002E004D46B9465F469B460C9122003F
:105930004B46013439002020B047AC42F7D14346F2
:105940000C9901330F930B7835000C935E46BB46E0
:105950004F46002B00D10EE50D9B002B00D1F6E445
:10596000002319E60C9B1B781A0015E710239A43B5
:105970000D92EFE60C9B1B78099361E60023994694
:105980000028AAD1002200231092119374E70C9BE7
:105990002200187859463B00A8474C468BE50C9AE4
:1059A000FA3BFF3B07329A430133994691444B46F9
:1059B0000C931368526815921A4306D11032904323
:1059C00000220992002900D081E06122810600D5E1
:1059D0004122D2B20A9214AA91460A9A00210A3AA6
:1059E000149242461792524618925A460991B3466B
:1059F0001F311E000F9B4944BA4619941A95002482
:105A0000674698468946159D16901B920AE03032EB
:105A1000D2B24B4601341A55A8454AD0202C4AD060
:105A200006000D003A00002330002900FEF768F858
:105A3000D2B2092AEBD9149B9C466244D2B2E8E761
:105A40006123820600D54123DBB20A3B0C93434617
:105A500014A91F228C46159353466244A046B246B1
:105A60004C461797A9461700099D0D9E1490169352
:105A700008E03033DBB201343B55B5420ED3202C65
:105A80000CD0050031002800FDF7FCFFCBB209293E
:105A9000EFD90C9A94466344DBB2ECE7159B4D4674
:105AA000A14644469846169B564614989A46179F18
:105AB000D0E5B742B2D9179B57469846189B5E4629
:105AC0009A461B9B09949B461698199C1A9D43461F
:105AD0000593534604930D9B069003930023029372
